{
  "_format": "hh-sol-artifact-1",
  "contractName": "BuyMeACoffee",
  "sourceName": "contracts/BuyMeACoffee.sol",
  "abi": [
    {
      "inputs": [],
      "stateMutability": "nonpayable",
      "type": "constructor"
    },
    {
      "anonymous": false,
      "inputs": [
        {
          "indexed": true,
          "internalType": "address",
          "name": "from",
          "type": "address"
        },
        {
          "indexed": false,
          "internalType": "uint256",
          "name": "timestamp",
          "type": "uint256"
        },
        {
          "indexed": false,
          "internalType": "string",
          "name": "name",
          "type": "string"
        },
        {
          "indexed": false,
          "internalType": "string",
          "name": "message",
          "type": "string"
        }
      ],
      "name": "NewMemo",
      "type": "event"
    },
    {
      "anonymous": false,
      "inputs": [
        {
          "indexed": true,
          "internalType": "address",
          "name": "owner",
          "type": "address"
        },
        {
          "indexed": false,
          "internalType": "uint256",
          "name": "amount",
          "type": "uint256"
        }
      ],
      "name": "TipsWithdrawn",
      "type": "event"
    },
    {
      "inputs": [
        {
          "internalType": "string",
          "name": "name",
          "type": "string"
        },
        {
          "internalType": "string",
          "name": "message",
          "type": "string"
        }
      ],
      "name": "buyCoffee",
      "outputs": [],
      "stateMutability": "payable",
      "type": "function"
    },
    {
      "inputs": [],
      "name": "getMemos",
      "outputs": [
        {
          "components": [
            {
              "internalType": "address",
              "name": "from",
              "type": "address"
            },
            {
              "internalType": "uint256",
              "name": "timestamp",
              "type": "uint256"
            },
            {
              "internalType": "string",
              "name": "name",
              "type": "string"
            },
            {
              "internalType": "string",
              "name": "message",
              "type": "string"
            }
          ],
          "internalType": "struct BuyMeACoffee.Memo[]",
          "name": "",
          "type": "tuple[]"
        }
      ],
      "stateMutability": "view",
      "type": "function"
    },
    {
      "inputs": [],
      "name": "owner",
      "outputs": [
        {
          "internalType": "address payable",
          "name": "",
          "type": "address"
        }
      ],
      "stateMutability": "view",
      "type": "function"
    },
    {
      "inputs": [],
      "name": "withdrawTips",
      "outputs": [],
      "stateMutability": "nonpayable",
      "type": "function"
    }
  ],
  "bytecode": "0x608060405234801561001057600080fd5b50600080546001600160a01b03191633179055610865806100326000396000f3fe60806040526004361061003f5760003560e01c8063204206e1146100445780633aaa74b214610059578063865c51721461006e5780638da5cb5b14610099575b600080fd5b610057610052366004610657565b6100d1565b005b34801561006557600080fd5b50610057610269565b34801561007a57600080fd5b50610083610394565b6040516100909190610703565b60405180910390f35b3480156100a557600080fd5b506000546100b9906001600160a01b031681565b6040516001600160a01b039091168152602001610090565b600034116101265760405162461bcd60e51b815260206004820152601b60248201527f43616e27742062757920636f666665652077697468203020455448000000000060448201526064015b60405180910390fd5b6040805160808101825233815242602080830191825292820185815260608301859052600180548082018255600091909152835160049091027fb10e2d527612073b26eecdfd717e6a320cf44b4afac2b0732d9fcbe2b7fa0cf6810180546001600160a01b03939093166001600160a01b031990931692909217825592517fb10e2d527612073b26eecdfd717e6a320cf44b4afac2b0732d9fcbe2b7fa0cf78401559051805193949193610201937fb10e2d527612073b26eecdfd717e6a320cf44b4afac2b0732d9fcbe2b7fa0cf801929190910190610537565b506060820151805161021d916003840191602090910190610537565b505050336001600160a01b03167fc56140e05f516509ae28110e0f72e17558a7561630dad2647c3ae87d986e365c42848460405161025d939291906107a9565b60405180910390a25050565b6000546001600160a01b031633146102d15760405162461bcd60e51b815260206004820152602560248201527f4f6e6c7920746865206f776e65722063616e2063616c6c20746869732066756e60448201526431ba34b7b760d91b606482015260840161011d565b47806103155760405162461bcd60e51b81526020600482015260136024820152724e6f207469707320746f20776974686472617760681b604482015260640161011d565b600080546040516001600160a01b039091169183156108fc02918491818181858888f1935050505015801561034e573d6000803e3d6000fd5b506000546040518281526001600160a01b03909116907fdbcc78aa7a73614521d0f2e855bccce29cc98fe3d4cd706eb865205cb09a43069060200160405180910390a250565b60606001805480602002602001604051908101604052809291908181526020016000905b8282101561052e576000848152602090819020604080516080810182526004860290920180546001600160a01b031683526001810154938301939093526002830180549293929184019161040b906107de565b80601f0160208091040260200160405190810160405280929190818152602001828054610437906107de565b80156104845780601f1061045957610100808354040283529160200191610484565b820191906000526020600020905b81548152906001019060200180831161046757829003601f168201915b5050505050815260200160038201805461049d906107de565b80601f01602080910402602001604051908101604052809291908181526020018280546104c9906107de565b80156105165780601f106104eb57610100808354040283529160200191610516565b820191906000526020600020905b8154815290600101906020018083116104f957829003601f168201915b505050505081525050815260200190600101906103b8565b50505050905090565b828054610543906107de565b90600052602060002090601f01602090048101928261056557600085556105ab565b82601f1061057e57805160ff19168380011785556105ab565b828001600101855582156105ab579182015b828111156105ab578251825591602001919060010190610590565b506105b79291506105bb565b5090565b5b808211156105b757600081556001016105bc565b600082601f8301126105e0578081fd5b813567ffffffffffffffff808211156105fb576105fb610819565b604051601f8301601f19908116603f0116810190828211818310171561062357610623610819565b8160405283815286602085880101111561063b578485fd5b8360208701602083013792830160200193909352509392505050565b60008060408385031215610669578182fd5b823567ffffffffffffffff80821115610680578384fd5b61068c868387016105d0565b935060208501359150808211156106a1578283fd5b506106ae858286016105d0565b9150509250929050565b60008151808452815b818110156106dd576020818501810151868301820152016106c1565b818111156106ee5782602083870101525b50601f01601f19169290920160200192915050565b60006020808301818452808551808352604092508286019150828160051b870101848801865b8381101561079b57888303603f19018552815180516001600160a01b0316845287810151888501528681015160808886018190529061076a828701826106b8565b9150506060808301519250858203818701525061078781836106b8565b968901969450505090860190600101610729565b509098975050505050505050565b8381526060602082015260006107c260608301856106b8565b82810360408401526107d481856106b8565b9695505050505050565b600181811c908216806107f257607f821691505b6020821081141561081357634e487b7160e01b600052602260045260246000fd5b50919050565b634e487b7160e01b600052604160045260246000fdfea2646970667358221220844c3495156db0fbb46f049cb1d9d56cd22b8b9b6b164cfb4de6240859c843d964736f6c63430008040033",
  "linkReferences": {},
  "deployedLinkReferences": {}
}